:10000000A8100020A521000015200000A12100005B
:10001000A1210000A1210000A1210000A1210000D8
:10002000000000000000000000000000A12100000E
:10003000A121000000000000A1210000A12100007A
:10004000FD190000891B0000B11C0000FD19000013
:10005000D51A0000000000000000000000000000B1
:100060000000000000000000000000000000000090
:100070000000000000000000000000000000000080
:100080000000000000000000000000000000000070
:100090000000000000000000000000000000000060
:1000A0000000000000000000000000000000000050
:1000B0000000000000000000000000000000000040
:1000C0000000000000000000000000000000000030
:1000D0000000000000000000000000000000000020
:1000E0000000000000000000000000000000000010
:1000F0000000000000000000000000000000000000
:1001000000000000000000000000000000000000EF
:1001100000000000000000000000000000000000DF
:1001200000000000000000000000000000000000CF
:1001300000000000000000000000000000000000BF
:1001400000000000000000000000000000000000AF
:10015000000000000000000000000000000000009F
:10016000000000000000000000000000000000008F
:10017000000000000000000000000000000000007F
:10018000000000000000000000000000000000006F
:10019000000000000000000000000000000000005F
:1001A000000000000000000000000000000000004F
:1001B000000000000000000000000000000000003F
:1001C000FFFFFFFFFFFFFFFFFFFFFFFFFFFFFFFF3F
:1001D000FFFFFFFFFFFFFFFFFFFFFFFFFFFFFFFF2F
:1001E000FFFFFFFFFFFFFFFFFFFFFFFFFFFFFFFF1F
:1001F000FFFFFFFFFFFFFFFFFFFFFFFFFFFFFFFF0F
:100200000348044B834202D0034B03B118477047A5
:10021000180100201801002000000000064B0749CB
:10022000C91A891048BF0131491003D0044B0BB1E2
:1002300001481847704700BF18010020180100202E
:100240000000000010B5064C237843B9FFF7D8FF33
:10025000044B13B10448AFF300800123237010BD99
:1002600038010020000000008430000008B5054B74
:100270001BB105490548AFF30080BDE80840FFF712
:10028000CDBF00BF000000003C0100208430000012
:10029000F8B5D0E902E50446AEEB050740689742A1
:1002A0002844154408D80E463A46A5EB0E0501F041
:1002B000EBFF2A466068F11901F0E6FFBFF35F8F9C
:1002C000E560F8BD2DE9F8434FF000090646884681
:1002D0001746D0E902243369151B9C4203F1FF3114
:1002E00025BF03F1FF339B180B1B1B1BBD4228BF0F
:1002F0003D469D4228BF1D46706841462A4620441F
:1003000001F0C2FFB2682C44A24208BF0024A944F5
:10031000A8447F1BBFF35F8FF460002FDBD14846FA
:10032000BDE8F883F8B5164CA8220021204601F05C
:10033000A3FF4FF40066002303211020114A124F3F
:10034000124D21616161A261E7612662A36263626D
:10035000E36222666566A0662367E3666367BFF3B0
:100360005F8F0B4B9C46A3F11000ACEB030213F91B
:10037000011D8342A154F8D1BFF35F8FF8BD00BFC8
:10038000640900200C2300006401002054010020B7
:10039000282300002DE9F04FDFF8A4B006469BF8B3
:1003A00000308946532B154683B001D0FFF7BAFFC2
:1003B00006EB46040BEBC404E36E276F4FEA460AD4
:1003C0009F421FD8DB1B9D422A4628BF1A4612B9FE
:1003D0004FF0000812E090460AEB06030BEBC30354
:1003E000596E48463944174401F04EFFB8F1000FEA
:1003F000EED0B2440BEBCA0ACAF87070404603B0A4
:10040000BDE8F08FA26E616EA2EB0708A84528BF79
:10041000A846394442464846019301F035FFA16E93
:10042000019B4744B942A5EB080214BFDB1B002720
:100430009A4228BF1A46002AD8D0C1449044CBE73C
:100440006409002010B50B46EFF311844FF0200132
:1004500081F311881946FFF79DFF84F3118810BDC1
:1004600038B5204B00EB400403EBC40EDEF82C4003
:10047000013000EB4000012C8C46154603EBC00018
:1004800005D0022C2AD0B4B10024204638BDDEF8B5
:100490002830DEF82440A3429CBFDEF820105B1811
:1004A000013B1C1B944228BF144661462246FFF7BD
:1004B000EFFE204638BDDEF82830DEF824209342D7
:1004C0009CBFDEF820105B18013B9A1A9542DCD8DD
:1004D0002A466146FFF7DCFE2C46D6E7BDE83840E9
:1004E000FFF7F0BE64090020F8B50B4B04461B78FB
:1004F0000D46532B164601D0FFF714FFEFF311877B
:100500004FF0200181F31188324629462046FFF73B
:10051000A7FF87F31188F8BD6409002010B5064CC9
:100520002378532B01D0FFF7FDFEE36E206FC01A36
:1005300018BF012010BD00BF64090020D0E90123CD
:1005400010B50446581C904207D82268D15403467F
:10055000E16862680131C4E902019A4200D010BD2D
:1005600021682069FFF7C0FFA368984215BF4FF0CC
:10057000FF330023E360A36010BD00BF2DE9F84FF7
:1005800091420F46DDE90A94154683461E4662D322
:100590000B464FF00108B3FBF5F39D4208F101084B
:1005A000F9D9B04538BFB04614F0010A02D1B9F10B
:1005B000000F37D1DBF80C30002B23DB012402E0E5
:1005C000013E05FB04F4012EFAD8B7FBF4F39D427B
:1005D000F7D9224E06E0AC42B4FBF5F30CD31C462F
:1005E000B7FBF3F3F156584604FB1377FFF7A6FF6A
:1005F000DBF80C30002BEEDABAF1000F02D0B9F1C3
:10060000000F09D1BDE8F88F20215846FFF796FF6B
:10061000DBF80C30002BF5DBC14509F1FF39F3D8CD
:10062000BDE8F88FA30711D420240CE021465846DA
:10063000FFF784FFDBF80C3009F1FF39002BE1DB19
:10064000B9F1000FB8D0C845F0D3B3E7002E14BFFE
:1006500020243024F7E74FF00108A2E72C23000004
:100660002DE9F04F002340249BB00DF1280A05949A
:1006700081460C461746CDE90730CDF810A0069309
:1006800006E004A8FFF75AFF079B002BC0F2AD80DD
:1006900014F9011B002900F0A0802529F1D10026C2
:1006A000234613F9012BA2F123010D2908D8DFE815
:1006B00001F07F070707070707077B07830707770F
:1006C000A2F13001C9B209294FF000050FD805EB9E
:1006D000850502EB450593F900201C46A2F1300187
:1006E000C9B20929A5F1300503F10103EFD92E2A7A
:1006F00000F0FA804FF0000B94F9001021F0040094
:1007000068281C465CD02529BBD05839CBB2202B99
:10071000BAD82029B8D801A353F821F0F307000074
:10072000890600008906000089060000890600008D
:10073000890600008906000089060000890600007D
:100740008906000089060000D50800006D08000039
:10075000890600008906000089060000890600005D
:10076000890600008906000089060000890600004D
:100770008906000089060000890600004F08000075
:10078000890600008906000029080000890600008B
:100790000F0800008906000089060000F30700002A
:1007A0001C4646F002067BE71C4646F0040677E747
:1007B0001C4646F0080673E71C4646F001066FE744
:1007C00014F9011B21F00403682B9CD114F9011BBF
:1007D00021F00403682B96D1F2E7079B002B04DD80
:1007E000069C002C40F09980234418461BB0BDE8BD
:1007F000F08F102238685B4601680430CDE900565E
:1008000038600DEB0200FFF7B9FE079B3DE7386843
:100810005B4601680430CDE900560A22386004A81E
:10082000FFF7ACFE079B30E73B681A1D3A601D6876
:1008300015F9011B00293FF427AF04A8FFF77EFE3E
:10084000079B002BF4DA18461BB0BDE8F08F082395
:10085000102200253868016804303860CDE9003581
:100860000DEB0200FFF78AFE079B0EE73B684FF097
:1008700001081A6804333B6082EAE273A3EBE27377
:10088000092B039209DD5C481946A0FB03C36329C9
:1008900008F101084FEAD303F6DCD84538BFD84643
:1008A000002D43D1079900250B4600299DDB039BB2
:1008B000002B62DB730770D406F00303022B71D0A8
:1008C0005B460A22CDE90056039904A8FFF756FEBD
:1008D000079BDAE63B6804A81A1D93F900103A60FA
:1008E000FFF72CFE079BD0E694F90110A1F130022E
:1008F000D2B2092A4DD81C464FF0000B0BEB8B02ED
:1009000001EB420214F9011FA2F1300BA1F13003F7
:10091000DBB2092BF2D9631CF0E622465146484669
:100920000393FFF7E1FD039B23445EE7039A06F080
:100930000203002A14DB720712D4002B49D0BBF14A
:10094000000F17D0F00715D4A5B1A84512D2202169
:1009500004A8FFF7F3FD079B013D002BF4DA44E701
:10096000013D13B1BBF1000F04D0F20702D4002DFA
:10097000EAD197E707990B4697E75B422D2104A838
:100980000393FFF7DBFD079900290B46FFF62DAF18
:1009900092E74FF0000B0133B0E62B2104A8FFF7DC
:1009A000CDFDF0E7BBF1000F8AD1002D88D0454581
:1009B0001FD9302104A8FFF7C1FD0799013D002987
:1009C0000B46FFF612AF002DF1D10029FFF60DAF57
:1009D00076E7F107B8D5079900290B46FFF605AF72
:1009E00006F00303022B7FF46BAFBBF1000FDED0E8
:1009F00066E70B46E9E700BFCDCCCCCC0EB400B522
:100A000082B003AB53F8041B01AA0193FFF728FE41
:100A100002B05DF804EB03B0704700BF10B51A4C8C
:100A2000022863681AD003284FF001021ED11988EA
:100A3000164800F0C7FA002263685988134800F08E
:100A4000C1FA002263689988104800F0BBFABDE83B
:100A5000104001214FF4FA7001F0B0BA0022198859
:100A60000A4800F0AFFA01226368E6E79988074870
:100A700000F0A8FA636800225988044800F0A2FA3E
:100A8000636800221988DFE774300000A80A00209C
:100A900084B038B504AC84E80F0022460021234816
:100AA00000F0AAFC28BB224C0320FFF7B7FF214B24
:100AB00022781D685AB94FF0FF321A600220FFF702
:100AC000ADFF00232370BDE8384004B07047002D0F
:100AD000F4D1194B194A1A492846FFF78FFF012014
:100AE000FFF79CFF012228461649FFF787FF00BE4B
:100AF000E4E7154B114A124904460020FFF77EFF38
:100B00000120FFF78BFF094800F0F0FB30B92246C7
:100B10000C490020FFF772FF00BEC4E70B4B0C4AE4
:100B200007490020FFF76AFFF1E700BFB00A002085
:100B3000A60A002080000020B02300004824000006
:100B400054230000902300003C2300007023000089
:100B50003824000041F2010001210822062330B5AB
:100B60001A4D1B4C05F10C0C2860A980AA71AB60D2
:100B70000FCCACE80F000FCCACE80F000FCC91B05D
:100B8000ACE80F0094E80F006C468CE80F001149A8
:100B90000020FFF733FF05F1100CBCE80F000FC475
:100BA000BCE80F000FC4BCE80F000FC49CE80700AE
:100BB00084E8070095E80F00FFF76AFF0020064968
:100BC00011B0BDE83040FFF719BF00BF0C0A00208C
:100BD00040000020D823000008240000022208233F
:100BE00070B500261A4D1B4C05F10C0C2A60AB7138
:100BF0000FCCACE80F000FCCACE80F000FCC90B0DE
:100C0000ACE80F00AE80AE6094E80F006C468CE854
:100C10000F0030461049FFF7F1FE05F1100CBCE85B
:100C20000F000FC4BCE80F000FC4BCE80F000FC4D6
:100C30009CE8070084E8070095E80F00FFF728FF0D
:100C40003046064910B0BDE87040FFF7D7BE00BF80
:100C5000580A002000000020D823000008240000CB
:100C60008288B2F5806F32D01AD9B2F5006F06D102
:100C70000121194B197000201849FFF7BFBEFAD3A4
:100C8000B2F5005F05D0B2F5804F02D0B2F5805FBB
:100C9000F1D10121124B002019701049FFF7AEBEAF
:100CA000202A0BD8012AE6D90E4B911E89B2CB40DF
:100CB000DB07EED400200949FFF7A0BEB2F5807F24
:100CC000E7D0B2F5007FE4D0802AD4D1E1E701215A
:100CD000054B1970CFE700BFA60A002030240000A2
:100CE000A40A002045400040A50A00202DE9F04F4D
:100CF000002489B0714DCDE90444CDE906446B6808
:100D0000012219886E48039400F05CF96B68012297
:100D100059886B4800F056F96B6801229988684839
:100D200000F050F901214FF4FA7001F047F96B68B7
:100D300022461988624800F045F96B6822465988B6
:100D40005F4800F03FF96B68224699885C4800F0E4
:100D500039F903A801F022F99DF80D009DF80E1055
:100D60009DF80F30CDE90010564A57492046FFF74D
:100D700045FE56492046FFF741FE5549554800F0CB
:100D8000F3FB002840F08C804FF0000952494846A0
:100D9000FFF734FE4FF00108CA46504CDFF860B14F
:100DA0004F4F504D35E0BAF1010F64D04FF00109BB
:100DB000AB69CA4623F0011323F4404343F0050313
:100DC000AB61FFF7C7FE9BF8003073B10026464BBE
:100DD0003046464A46498BF80060FFF70FFE012275
:100DE00030464449FFF70AFE00BE4FF4FA73424A08
:100DF0001360EFF3108288F31088236813B123681F
:100E0000013B2360236813B98021FB70F97082F3E2
:100E10001088FFF783FB28BBEFF3108288F310885C
:100E2000236813B94021FB70F970236801332360F4
:100E300082F310882B696A69C3F340039207B2D525
:100E40001BBBBAF1020F16D04FF00209AB69CA46BC
:100E500023F0011323F4404343F00503AB61FFF794
:100E6000BDFEB0E7102200200DEB0201FFF7EAFA09
:100E7000FFF770FED0E7D146AB6923F0011323F4EE
:100E8000404343F00403AB619DE7CA45F4D0B9F198
:100E9000010F8BD0B9F1020F18BFCA4693D1D3E727
:100EA0000546164B20461249104AFFF7A7FD2A4671
:100EB00020461049FFF7A2FD00BE65E77430000030
:100EC000A80A00205C2400006024000058260000CE
:100ED000C42C0000B00A002064280000140B00207D
:100EE000000D084000080840A8280000B8280000AD
:100EF0005423000090230000800000204C280000B4
:100F0000A40A0020022800D070470249024800F0DD
:100F1000CDB800BFDC2C0000A80A002008B5FFF700
:100F2000E5FE002008BD00BF2DE9F84F0388DBB1C6
:100F300080464FF000094FF0010BDFF884A0002439
:100F40001E4D4FEAC907D8F8043035F8022BD919DD
:100F5000898891420AD00134032CF4D1B8F80030CA
:100F600009F101094B45EAD8BDE8F88FDB590BFAC6
:100F700004F603F0B853B3F1807FF6B29AF8BB34AD
:100F80000ED03342E7D0012001F0E0F89AF8BB34EC
:100F9000012023EA06038AF8BB3401F0A7F8DAE758
:100FA0003342D8D1012001F0D1F89AF8BB340120A6
:100FB00033438AF8BB3401F099F8CCE75430000091
:100FC00000E00140C0B10D4B0068984210D1012AE9
:100FD00010D80123C8B283409BB202B91B04090A8E
:100FE000490101F1804101F5002100208B6070472B
:100FF00007207047032070470120704754524F501C
:10100000F8B50446FFF790FFEFF31082012383F356
:101010001088234F3B681BB92249CB704023CB700B
:101020003B6801333B6082F3108823882BB36168EF
:101030001D4C01EBC30E06E01B01083113448E4525
:1010400044F8230019D008688A88C5034FEA1223A0
:10105000D2B2F1D502EB031C54F82C601B0108310D
:1010600020F480356FF3104613448E4544F82C600D
:1010700044F82C5044F82300E5D1EFF3108201230B
:1010800083F310883B6813B13B68013B3B603B68CE
:101090001BB980200349CB70C87082F31088F8BD5B
:1010A000140B0020000D08400008084070B169B121
:1010B0004A685AB108B5074A03460068904207D00B
:1010C00008461A60FFF79CFF002008BD012070470A
:1010D0000E2008BD54524F501F2930B539D801F1A8
:1010E000400E00EBCE1EDEF800301C4DC3F38074C2
:1010F00054714FEAD37CDEF8084023F0604382F855
:1011000004C01360DEF8043004F007041B0F946081
:10111000EC5C0EF10C03947144B10C34A6440B3218
:1011200013F801CB734502F801CFF9D11F2908D874
:101130000122D0F8B0308A4023EA0203C0F8B03070
:1011400030BDFF2327298CBF6831203140F8213082
:1011500030BD01F1A00E00EBCE1EC4E75C300000F4
:1011600070B5456904460E4698B0A5B1294660227F
:10117000684601F089F860223146284601F084F87B
:10118000284623699847606918B16022694601F0D2
:101190007BF818B070BD0D46F2E700BF2DE9F041B5
:1011A00046680F063568046801F00F0256D404EB58
:1011B0000518D8F804704FEA051E17F0040F0EF159
:1011C000040337D117F0010F04EB030C01D1052AFA
:1011D00033D0D8F8043023F007031343C8F80430A1
:1011E000DCF8043003F007039A42F9D1BA0719D0AA
:1011F000CB0717D4336905EB4505D96905F1804361
:101200000B3301EB8301EF1C04EB850251F8043F23
:10121000D2F82061013503F001033343AF42C2F835
:101220002031F1D1A644DEF8043003F00703037344
:10123000BDE8F08111F0010FC4D104EB030CD8F824
:10124000043023F0070343F00103C8F80430DCF84E
:10125000043003F00703012BF9D1BAE7D4F8883042
:1012600013F0010C19D1CB0717D5634604EB830E9D
:10127000DEF8C070013327F00107082BCEF8C070EC
:10128000F4D1002304EB830EDEF82071013327F044
:101290000107062BCEF82071F4D1D4F8883023F062
:1012A00007031343C4F88830D4F88C3003F00703E5
:1012B0009A42F9D1BCF1000F0ED011F001010BD10F
:1012C0003369DB69043301F1300253F8046F0131F3
:1012D000082944F82260F6D14FEA051EA644DEF83C
:1012E000043003F007030373BDE8F081002878D0D1
:1012F00038B582683C4B9A424BD1002344688360E6
:1013000094F91530002B0DDB0121384D5A0903F0FB
:101310001F03203201FA03F345F82230BFF34F8F49
:10132000BFF36F8F94F91730002B0DDB01212F4D88
:101330005A0903F01F03203201FA03F345F8223063
:10134000BFF34F8FBFF36F8F94F91630002B0DDB77
:101350000121264D5A0903F01F03203201FA03F33D
:1013600045F82230BFF34F8FBFF36F8F2368012BF7
:1013700011D0B3FA83F31E4D5B0955F82330A3B1A6
:101380000521FFF70BFF00232268184645F822309D
:1013900038BD072038BD0822144BC3F88020BFF3A6
:1013A0004F8FBFF36F8F2368E3E710220F4BC3F813
:1013B0008020BFF34F8FBFF36F8F8121FFF7EEFEC9
:1013C0008521FFF7EBFEEFF31081012383F31088F3
:1013D000084B9A6842F000629A609B6881F310881B
:1013E000D1E70120704700BF4446435200E100E0CE
:1013F000CC0A002000400840002863D0002A61D0B9
:10140000F0B5584B84689C425AD1072904D9A1F100
:1014100020030A2B00F2848097687B0705D4937918
:10142000082B7DD8002F40F08480436855791C68D4
:10143000137927294FEAC37343EA8573156843EA92
:101440000503056840D9A1F1280604EB440434449F
:1014500005EBC41E0EF5C04ECEF800349679E301BC
:10146000082E64D9182E68D94FEA161C0CF10B0C03
:101470004FEA0C7CCEF804C446F2084E03F5C84C83
:1014800007F007072B440CF10C0C43F80E70AC442A
:1014900002F10C03002E45D006F10C0E72440CF143
:1014A000FF3C13F801EB93420CF801EFF9D1272927
:1014B000056837D801222B1983F8D0220020F0BD0F
:1014C0000720F0BD0120704701EB84142E1996F817
:1014D000D06736073AD405EBC41E0EF5803ECEF831
:1014E00000309679E301082E25D9182E31D94FEA1C
:1014F000161C0CF10B0C4FEA0C7CCEF804C003F563
:10150000803C05EB030E0EF5803307F007070CF166
:101510000C0C9F60AC4402F10C03002EBCD1C9E757
:101520000320F0BDFF22903445F82420C6E7B446DE
:101530009EE70520F0BDB446DDE7A6F1080C4FEAB2
:101540009C0C0CF1080C5FFA8CFC91E74EF66320C2
:10155000F0BDA6F1080C4FEA9C0C0CF1080C5FFAE8
:101560008CFCC8E744464352002800F0CD812DE9A9
:10157000F04F0C4685B0002900F0A9810E69002EBD
:1015800000F0A5818A68002A00F0A1814B68002B39
:1015900000F09D810546D34980682768884200F0A5
:1015A0000E82012F00F2B281DFF858A35AF82710FB
:1015B000002940F09081D6F81CB0BBF1000F00F07C
:1015C0008681C94991F876100529C74900F0F9814B
:1015D00091F84A10002940F0F9811868411EB1F5D0
:1015E000806F80F07A81D3E901C8C44540F27581EB
:1015F000DB689845C0F071817169002900F067814E
:101600000B6803F1FF3EBEF5806F80F06681D1E983
:1016100001E9CE4540F26181C9688945C0F05D812C
:10162000CE44C4440EFB03310CFB0003994200F28C
:1016300054810023DFF8C4922A61E2686C60C5E936
:101640000532C5F80090EFF31081012383F3108871
:10165000A64B9A6822F000629A609B6881F310881A
:10166000D9F88C30DB0700F15481A14B01939BF832
:101670002C30A04A1B01DBB282F80333019BDD60F2
:101680009D4BD3F80C136FF31041C3F80C13D3F830
:101690000C33BFF35F8F0823C2F880311360012F32
:1016A0004AF8275000F095814FF480724FF0000BFC
:1016B0004020924BD6F80090C3F8982007F0010321
:1016C00041F6080A84469E46CDE90267DFF82C827F
:1016D0000BF00F074FEA1B1207F5C07642F4807239
:1016E00008EB0616C8F8982099E80F0086E80F0066
:1016F00008EB071757F80A300BF1010B6EF3C7130D
:10170000E34509F1100947F80A30E1D3DDE9026742
:101710004FF0000A01212846C8F898A0FFF73EFDC7
:1017200072696168D2F804800B684046FF2828BFC0
:10173000FF20013BC3F3090E136808F1FF3803F1E2
:10174000FF3C4B685FFA8CFC013B4EEA4343D1E916
:1017500002E10EF1FF3E013943EA4E6343EA812381
:101760004CEA082CD2E9021201394CEA014C013A48
:101770004CEA026C79013A0102F1804201F18041A8
:1017800001F5312102F530221360C1F800C4337E27
:10179000FF005B0243EA004343F4806343F001032C
:1017A000C1F80434564BB068F1683B4403C3336955
:1017B00043F00303536094F91530534525DB227D34
:1017C00003F160411201D2B201F5614181F80023B9
:1017D000019A03F1C00142F82350474A52F8210010
:1017E0006AF3104042F8210052F82120BFF35F8FC6
:1017F000012203F01F015B099B0003F1604303F525
:1018000061438A40C3F880211A6094F91730002B95
:1018100025DB227D03F160411201D2B201F5614165
:1018200081F800230199344A41F8235003F1C001A3
:1018300052F821006FF3104042F8210052F82120A5
:10184000BFF35F8F012203F01F015B099B0003F1CF
:10185000604303F561438A40C3F880211A6094F91C
:101860001630002B26DB227D03F160411201D2B23B
:1018700001F5614181F8002301981F4A03F1C0017D
:1018800040F8235052F821006FF3104042F8210035
:1018900052F82120BFF35F8F01215A09920003F013
:1018A0001F0302F1604202F5614201FA03F3C2F83C
:1018B0008031136028468021FFF770FC0021FFF77C
:1018C0006DFC0023074A1846AA60AB8100E00120A6
:1018D00005B0BDE8F08F0820FAE74EF6622005B0AB
:1018E000BDE8F08F4446435200E00140004008400C
:1018F000180B002000E100E00060004000000B40F9
:10190000500F0B40CC0A00200120704740F27A5063
:10191000DEE7D9F88C3013F00803FAD1984681211C
:101920002846FFF73BFC4FF040114346DBF804200C
:10193000DFF8C4C0C9F884202B4AC9F89C10C2F84B
:101940001483DBF82820C9F8AC200BF1040203F162
:10195000300152F8040F0133082B4CF82100F6D166
:101960009BF82D30214A1B01DBB282F80433204B57
:101970000021184601931F4B0161D3F8100361F356
:101980001040C3F81003D3F81033BFF35F8F102358
:10199000C2F8803113605A4652F82C3B1648CCF8F6
:1019A000883052F8043F08F1480108F1010823F09B
:1019B0000103B8F1060F40F82130F2D157E60E20AE
:1019C00086E791F82A1000293FF407AE4FF4C8705B
:1019D0007EE74FF48071084B4FF0400B8020D6F823
:1019E0000090C3F8981069E600100B4000E100E099
:1019F000180B00200060004000000B4070B598B04C
:101A0000EFF30383103B5BB2032B2BD01C462E4B12
:101A100000215A220DF1060053F8245000F02CFC4E
:101A2000D5E9003200214FF4807C1668284603EB8C
:101A30000613DA6892B20292AA69ADF804C0D960BE
:101A4000694600960492FFF78BFB204A04F1C0031D
:101A500052F823106FF3104142F8231052F823304C
:101A600018B070BD1A4B6022002168465C6800F017
:101A700003FC4FF4805000212268D2F89030ADF87A
:101A800004001D0C1B0403EB057302939B03C2F8B7
:101A900090100ED5D2F8A83293FAA3F3B3FA83F3D9
:101AA00002EB83020393D2F8E03023F00403C2F880
:101AB000E0300123A2692046694603240492009382
:101AC000FFF74EFBC1E700BF180B0020006000408D
:101AD000CC0A00202DE9F043284D99B0D5F8AC424E
:101AE00094FAA4F4002C38D0B4FA84F4072C34DC33
:101AF00001274FF48062D5F8A032A74004F12008F6
:101B00003B42CDF80C80ADF804201BD105EBC41688
:101B100006F5C046DFF86C90083633684146C3F3DB
:101B20000123164805AA0093FFF7D6FA009B6946E1
:101B300059F8230083690493FFF712FBD5F8A0320C
:101B40003B42EAD0A40004F1804404F53024D4F8E8
:101B5000E03023F00803C4F8E030084BD3F8AC328F
:101B600043B9074AD2F8101363F31041C2F81013B7
:101B7000D2F8103319B0BDE8F08300BF00000B406D
:101B800000600040CC0A00202DE9F04399B0EFF34B
:101B90000384454B103C64B253F82490D9F80430C8
:101BA000D9F818201F68D9F800101D6901F5985858
:101BB0000097049218F80730B844002B61D007262C
:101BC0002AE04FF4006003F5617301EB83021368B0
:101BD000ADF8040093FAA3F31BB1B3FA83F3072B18
:101BE00007DD536893FAA3F3002B5AD0B3FA83F3BB
:101BF000203303EB87120A4492F8D0176FF34201A7
:101C000082F8D017694648460393FFF7A9FA98F877
:101C10000030B3B3D9F8001098F800207B00D0B2A0
:101C2000D20727F00047CCD4020723D5EA690C334A
:101C300052F82330D1F8B40213F4805F0CBF4FF494
:101C400000534FF4006307EB470206FA02F202402A
:101C5000ADF8043092FAA2F202B3B2FA82F202F1C3
:101C6000280301EB8202D2F8E01121F01001C2F842
:101C7000E011C7E703F56B734FF4007001EB8302CB
:101C8000A5E70A4BC03453F824206FF3104243F801
:101C9000242053F8243019B0BDE8F08348232022D3
:101CA000DFE74023A5E700BF180B002000600040DD
:101CB0002DE9F04399B0EFF303892F4BA9F11009F7
:101CC0004FFA89F953F82960D6E90003D0F8B042F9
:101CD0001A6804F03F0494FAA4F4002C47D0B4FA34
:101CE00084F3012513F01C0F03F108011C4618BFF3
:101CF00003F0030305FA01F50CBF283328330393DF
:101D00004FF48063ADF80430D0F8A03200922B423B
:101D100014D1DFF86C8004F12807394605AAFFF7D3
:101D2000DBF9009B694658F8230083690493FFF7A9
:101D300017FA3068D0F8A0322B42EED000EB8404C2
:101D4000D4F8E03123F00803C4F8E031D0F8B03221
:101D500053B90A4A09F1C00952F8291063F3104136
:101D600042F8291052F8293019B0BDE8F0834FF439
:101D700080752823C3E700BF180B002000600040D7
:101D8000CC0A0020064B074993F826001A6A51F83E
:101D90002030C2F302620449D3400B60704700BF99
:101DA00000E0014018010020A00C0020704700BF97
:101DB000F8B54AF2035001235349544AA1F8FE03EF
:101DC000A2F80431B2F804319BB2002BFAD1012001
:101DD0004FF400454FF0090C4D4CDFF850E14D4EEB
:101DE000C4F804E0DFF848E14749C4F80CE0A2F881
:101DF0000001494AB060494F30606261484A27603B
:101E0000A261A56091F826202561086A54F8222075
:101E1000444EC0F30260C240326081F8133481F84E
:101E2000A2C091F880341BB991F88134990766D02B
:101E3000354D95F88034002B56D00022324B83F874
:101E4000812483F8802400232F4981F8323091F8CF
:101E50003C301A07FBD5002342F2017543F2021011
:101E6000294AA1F8485081F84A30088581F82A307B
:101E700092F83C309B06FBD503200523234981F8CB
:101E80001C0101202849116282F8263092F8263080
:101E9000116A54F82330C1F30261CB40336082F8F9
:101EA000300082F8520092F87630174943F0400330
:101EB00082F8763091F87630DB09FBD0C623032018
:101EC00081F86E0081F8763091F876300E4A03F092
:101ED000BF0381F8763092F87630DB09FBD14FF4FE
:101EE0002543A2F8FE33F8BD0121C82085F88014EF
:101EF00000F064F895F88034012BFBD19DE74FF496
:101F00007A70FFF753FF9EE700E0014000C00140F8
:101F1000180100200070004000C2EB0B002D3101C1
:101F2000001C4E0EA00C00202112012000127A008D
:101F300000366E0138B50025164C0121C82084F802
:101F4000285000F03BF884F8245094F82430002BFB
:101F5000FBD194F824300F4A43F0020384F8243074
:101F600092F82430C3F340019B07F9D4094882F862
:101F7000221090F8223003F0FF04002BF9D1012049
:101F800000F0E4F8044B012083F8BB44BDE838407E
:101F900000F0ACB80030084000E00140034618B142
:101FA000024A00201A6070470120704700000604B2
:101FB000A0F101000028FBD1704700BF4FF47A73F5
:101FC00010B400FB01F1114C114A2468B2FBF4F289
:101FD000A1FB03043CB9B0FBF2F0800860B15DF8EE
:101FE000044BFFF7E5BF9200B1FBF2F1A1FB031335
:101FF0002BB908460028F2D15DF8044B70474FF02A
:10200000FF3C5DF8044B6046FFF7D2BFA00C0020F8
:1020100000CA9A3B70B500240A4B0B4EB3F84051EE
:10202000ADB225FA04F3DB0704D556F82430E0B24C
:1020300003B198470134102CF3D1024BA3F830516F
:1020400070BD00BF00600040D40A002030B56FF0C2
:10205000FF0585B0032000F079F84FF0FF311F4CE9
:102060001F482246856400230125CDE90111039113
:1020700004F1C00E32F8020F590960B104A800EB58
:10208000810151F80C0C03F01F0C05FA0CFC20EA3E
:102090000C0041F80C0C964503F10103EAD10199BB
:1020A000104B0F4A03201167C3F880120299516741
:1020B000C3F8841203999167C3F8881200F016F8E8
:1020C0000023094803F1C00234F8021F0133602BDA
:1020D00040F82210F6D105B030BD00BF922F0000AD
:1020E0000080004000E100E000600040EFF310815C
:1020F000012383F31088124B33F8102092B22AB1D7
:1021000033F81020013A92B223F8102033F810303F
:102110009BB293B90B4A10B4B2F8FE330A4C9BB28F
:1021200034F8100043F4254323EA0003A2F8FE33F9
:1021300081F310885DF8044B704781F31088704775
:10214000980C002000E001406C30000030B4EFF348
:102150001081012383F310880E4A32F810309BB2AD
:102160006BB90D4C0D4DB4F8FE3335F810C09BB271
:1021700043EA0C0343F425439BB2A4F8FE3332F840
:10218000103001339BB222F8103081F3108830BC3C
:10219000704700BF980C002000E001406C30000048
:1021A00000BE704708B500F003F8FEF7B7FEFEE783
:1021B0004FF4700270B5254B254CC3F888200020E1
:1021C0009C60FEF79FFEFFF7F3FD0120FEF79AFEED
:1021D0002368A3F5806383F30A881E481E4A002102
:1021E000121A00F049F81D481D4A1E49121A00F043
:1021F0004BF81D4D1D4B5B1B002B07DD00249E1073
:1022000055F8043B01349847A642F9DCFFF7BAFDC4
:10221000FFF790FE0320FFF799FF00234FF6FF70B2
:10222000134903F108020133092B21F81200F8D1F8
:102230000320FFF75BFF0220FEF764FEFFF706FFB7
:10224000BDE87040002000F015B800BF00ED00E0D0
:102250000000000038010020A40C00200000002035
:1022600018010020B03000001001002014010020EF
:10227000000D0840704700BF02440346934200D15E
:10228000704703F8011BF9E70A44431E914200D14D
:10229000704710B511F8014B914203F8014FF9D185
:1022A00010BDFFFF4275696C742077697468205215
:1022B000656E6573617320416476616E6365642049
:1022C000466C657869626C6520536F6674776172DD
:1022D00065205061636B6167652076657273696F15
:1022E0006E20342E362E3000342E362E3000000074
:1022F00000000604F8B500BFF8BC08BC9E46704755
:10230000F8B500BFF8BC08BC9E4670475465726DB6
:10231000696E616C00FFFFFF000000000000545474
:10232000522052454747455300FFFFFF30313233BB
:102330003435363738394142434445460A43414EE5
:1023400046442057726974652041504920464149EE
:102350004C4544005B4552525D20496E2046756EE7
:102360006374696F6E3A20257328292C2025730029
:102370000A202A2A43414E464420436C6F7365204D
:10238000415049206661696C65642A2A000000009A
:102390000D0A52657475726E6564204572726F72B3
:1023A00020436F64653A203078257820200D0A009C
:1023B00043414E207472616E736D697373696F6E01
:1023C000206661696C65642064756520746F207493
:1023D000696D656F757400FF0A5472616E736D6983
:1023E0007373696F6E206F662064617461206F760D
:1023F000657220636C61737369632043414E2046AC
:1024000072616D65000000000A436C61737369635B
:102410002043414E207472616E736D697373696FEE
:102420006E206973207375636365737366756C00E2
:102430000A307825780A00FF63616E66645F646520
:10244000696E697400FFFFFF63616E5F7772697484
:10245000655F6F7065726174696F6E00312E300058
:102460000D0A2A2A2A2A2A2A2A2A2A2A2A2A2A2A09
:102470002A2A2A2A2A2A2A2A2A2A2A2A2A2A2A2ABC
:102480002A2A2A2A2A2A2A2A2A2A2A2A2A2A2A2AAC
:102490002A2A2A2A2A2A2A2A2A2A2A2A2A2A2A2A9C
:1024A0002A2A2A2A2A2A2A2A2A2A0D0A2A202020E7
:1024B00052656E6573617320465350204578616D97
:1024C000706C652050726F6A65637420666F72204D
:1024D00043414E204644204D6F64756C652020209A
:1024E00020202020202020202020202020202020EC
:1024F0002020202A0D0A2A2020204578616D706C4A
:10250000652050726F6A6563742056657273696FD7
:102510006E20257320202020202020202020202015
:1025200020202020202020202020202020202020AB
:102530002020202020202020202020202A0D0A2AB0
:10254000202020466C657820536F66747761726531
:10255000205061636B2056657273696F6E20202571
:10256000642E25642E256420202020202020202079
:10257000202020202020202020202020202020205B
:102580002020202020202020202A0D0A2A2A2A2A42
:102590002A2A2A2A2A2A2A2A2A2A2A2A2A2A2A2A9B
:1025A0002A2A2A2A2A2A2A2A2A2A2A2A2A2A2A2A8B
:1025B0002A2A2A2A2A2A2A2A2A2A2A2A2A2A2A2A7B
:1025C0002A2A2A2A2A2A2A2A2A2A2A2A2A2A2A2A6B
:1025D0002A2A2A2A0D0A526566657220746F2072B3
:1025E0006561646D652E7478742066696C6520661B
:1025F0006F72206D6F72652064657461696C732001
:102600006F6E204578616D706C652050726F6A65E1
:10261000637420616E640D0A4653502055736572D1
:102620002773204D616E75616C20666F72206D6F2F
:10263000726520696E666F726D6174696F6E20617C
:10264000626F75742043414E20464420647269765F
:1026500065720D0A000000000D0A2054686973209D
:102660004578616D706C652050726F6A6563742087
:1026700064656D6F6E737472617465732043414E4F
:10268000204644206F7065726174696F6E73206FAD
:102690006E2052656E65736173205241204D435523
:1026A00073207573696E67203220524120626F611A
:1026B0007264732E0D0A4F6E207072657373696EAB
:1026C0006720616E79206B6579206F6E2074686574
:1026D000205254545669657765722C206461746188
:1026E000206973207472616E736D697474656420FF
:1026F00066726F6D206F6E6520626F617264207408
:102700006F206F746865722E0D0A4F6E20646174BD
:102710006120726563657074696F6E2C20426F6111
:1027200072643220646973706C61797320746865B7
:102730002072656365697665642064617461206FE9
:102740006E2074686520525454566965776572200E
:10275000616E64207472616E736D6974732075703C
:102760006461746564206461746120746F20426FD9
:10277000617264312E0D0A426F61726431206F6E96
:1027800020726563657074696F6E206F6620646186
:1027900074612C206368616E6765732043414E202D
:1027A0006672616D6520746F2043414E4644206619
:1027B00072616D6520616E642073656E6473206460
:1027C00061746120746F20626F617264322E0D0A31
:1027D0004F6E20726563657074696F6E2C20626F36
:1027E00061726432207472616E736D6974732075E6
:1027F00070646174656420646174612E0D0A4F6EAB
:10280000207375636365737366756C207472616E93
:10281000736D697373696F6E2C20426F61726431DE
:10282000207072696E7473207468652064617461CD
:10283000206F6E20746F207468652052545456695E
:10284000657765722E0D0A0A000000000A43414EAA
:102850004644204F70656E20415049206661696C86
:10286000656400000A506C6561736520656E74656F
:102870007220616E79206B6579206F6E20525454FE
:102880002056696577657220746F20696E69746976
:102890006174652043414E207472616E736D69737B
:1028A00073696F6E2E0A00000A43414E2045525252
:1028B000207374617475730068616C5F656E747207
:1028C0007900FFFF00100080000000800080000001
:1028D00001000000000000000000000000000000F7
:1028E00000000000000000000000000000000000E8
:1028F00000000000000000000000000000000000D8
:1029000000000000000000000000000000000000C7
:1029100000000000000000000000000000000000B7
:102CC000000000000100000000010020610C000075
:102CD00000000000880000200C00020156000000E7
:102CE000E42C0000008000000000000000800000D4
:102CF00001000000008000000200000000800000D1
:102D0000030000000040000004000000004000003C
:102D100005000000040000000600000004000000A0
:102D20000700000004000000080000000080000010
:102D30000E000000008000000F0000000008011CD1
:102D4000000100000008011C010100000008011C36
:102D5000020100000008011C030100000008011C22
:102D6000040100000008011C050100000008011C0E
:102D7000060100000008011C07010000000001001E
:102D800008010000000C01030B010000040C00000E
:102D90000C010000040C00000D010000040C0000F8
:102DA0000E010000040C00000F010000000C0106E1
:102DB00002020000000C010603020000000C0106E4
:102DC00004020000000C010605020000000C0106D0
:102DD00006020000040C00000702000000000100D1
:102DE00000030000000C010601030000000C0106B6
:102DF00002030000040C000003030000000C01119A
:102E000005030000000C011106030000000C011175
:102E100007030000000C011108030000000C011161
:102E200009030000000C01110A030000040C00005B
:102E30000B0300001040000000040000000C01170C
:102E400001040000000C011702040000050C000042
:102E500003040000040C000004040000000C01172F
:102E600005040000000C011706040000000C01130B
:102E700007040000040C00000804000010400000DB
:102E800009040000000C01060A040000000C010601
:102E90000B040000000C01060C040000000C0106ED
:102EA0000D040000000C01070E040000000C0107D7
:102EB0000F040000000C011300050000000C0113BA
:102EC00001050000400C010405050000400C010450
:102ED00006050000000C01070B050000000C0107AF
:102EE0000C0500000008011C000600000008011C81
:102EF000010600000000011C02060000040C000096
:102F00000806000000000110090600000000011082
:102F10000A060000040C00000B060000000001057A
:102F20000D060000000001050E0600000400000070
:102F30000F060000000C011700070000000C01172D
:102F400001070000000C011702070000000C011728
:102F500003070000000C011704070000000C011714
:102F600005070000004000000607000000000114F3
:102F700007070000000C01060807000010400000D1
:102F800005090000000C0114000B0000000C0114E6
:102F9000010B00006800670069005A00590000003A
:102FA0000000000000000000000000000000000021
:102FB0000000000000000000000000000000000011
:102FC0000000000000000000000000000000000001
:102FD00000000000000000000000000000000000F1
:102FE00000000000000000000000000000000000E1
:102FF00000000000000000000000000000000000D1
:1030000000000000000000000000000000000000C0
:1030100000000000000000000000000000000000B0
:1030200000000000000000000000000000000000A0
:103030000000000000000000000000000000000090
:103040000000000000000000000000000000000080
:1030500000000000020403040404FFFF0001020357
:1030600004050607080C1014182030400100020067
:1030700008001000030000007C300000060007007C
:103080000800FFFF1000000000000000017A52005D
:10309000027C0E011B0C0D00100000001800000047
:1030A0000000000010000000000000000000000010
:1030B00035000000000000000000000000000000DB
:1030C0000000000000000000000000000000000000
:1030D00000000000000000000000000000000000F0
:1030E00000000000000000000000000000000000E0
:1030F000310000000000000000000000000000009F
:1031000000000000000000000000000000000000BF
:1031100000000000000000000000000000000000AF
:10312000000000000000000000000000000000009F
:10313000F401000000000000C428000000000000AE
:103140000100000000000000003E0000F000002030
:1031500001000000A8000020030B00000100000097
:1031600073730000737300007273000072730000C9
:1031700072730000727300007273000072730000BB
:1031800001070000020200000060600000606000B3
:10319000006060000060600000606000006060002F
:1031A000010000000E00000005000000010000000A
:1031B000010000003B0000001400000004000000BB
:0831C0006D0200004502000051
:020000040100F9
:10A10000FFFFFFFFFFFFFFFFFFFFFFFFFFFFFFFF5F
:04A11000FFFFFFFF4F
:04A13400FFFFFFFF2B
:10A20000FFFDFFFFFFFFFFFFFFFFFFFFFFFFFFFF60
:10A21000FFFFFFFFFFFFFFFFFFFFFFFFFFFFFFFF4E
:10A22000FFFFFFFFFFFFFFFFFFFFFFFFFFFFFFFF3E
:10A23000FFFFFFFFFFFFFFFFFFFFFFFFFFFFFFFF2E
:10A24000FFFFFFFFFFFFFFFFFFFFFFFFFFFFFFFF1E
:10A25000FFFFFFFFFFFFFFFFFFFFFFFFFFFFFFFF0E
:10A26000FFFFFFFFFFFFFFFFFFFFFFFFFFFFFFFFFE
:10A27000FFFFFFFFFFFFFFFFFFFFFFFFFFFFFFFFEE
:10A28000F8F8FFFFFFFFFFFFFFFFFFFFFFFFFFFFEC
:10A29000FFFFFFFFFFFFFFFFFFFFFFFFFFFFFFFFCE
:10A2A000FFFFFFFFFFFFFFFFFFFFFFFFFFFFFFFFBE
:10A2B000FFFFFFFFFFFFFFFFFFFFFFFFFFFFFFFFAE
:10A2C000FFFFFFFFFFFFFFFFFFFFFFFFFFFFFFFF9E
:04000003000021A533
:00000001FF
